:100000000C9485080C94AD080C94AD080C94AD08C4
:100010000C94AD080C94AD080C94AD080C94AD088C
:100020000C94AD080C94AD080C94AD080C94AD087C
:100030000C94AD080C94AD080C94AD080C94AD086C
:100040000C948D240C94AD080C94EF260C943D2751
:100050000C94AD080C94AD080C94AD080C94AD084C
:100060000C94AD080C94AD0805A84CCDB2D44EB993
:100070003836A9020C50B9918688083CA6AAAA2A4B
:10008000BE000000803F050800FF0C4B0000000090
:10009000003E5B4F5B3E3E6B4F6B3E1C3E7C3E1C0E
:1000A000183C7E3C181C577D571C1C5E7F5E1C0054
:1000B000183C1800FFE7C3E7FF0018241800FFE70B
:1000C000DBE7FF30483A060E2629792926407F05CE
:1000D0000507407F05253F5A3CE73C5A7F3E1C1CE4
:1000E00008081C1C3E7F14227F22145F5F005F5FA4
:1000F00006097F017F006689956A60606060609490
:10010000A2FFA29408047E040810207E2010080894
:100110002A1C08081C2A08081E101010100C1E0C9F
:100120001E0C30383E3830060E3E0E060000000031
:100130000000005F00000007000700147F147F1418
:10014000242A7F2A1223130864623649562050005D
:1001500008070300001C2241000041221C002A1C49
:100160007F1C2A08083E0808008070300008080834
:100170000808000060600020100804023E51494554
:100180003E00427F400072494949462141494D3372
:100190001814127F1027454545393C4A49493141D9
:1001A000211109073649494936464949291E0000A7
:1001B00014000000403400000008142241141414FC
:1001C0001414004122140802015909063E415D59E8
:1001D0004E7C1211127C7F494949363E41414122F1
:1001E0007F4141413E7F494949417F090909013E1B
:1001F000414151737F0808087F00417F4100204042
:10020000413F017F081422417F404040407F021C53
:10021000027F7F0408107F3E4141413E7F0909096A
:10022000063E4151215E7F09192946264949493236
:1002300003017F01033F4040403F1F2040201F3FFC
:100240004038403F63140814630304780403615981
:10025000494D43007F4141410204081020004141C3
:10026000417F04020102044040404040000307086F
:100270000020545478407F2844443838444444286B
:10028000384444287F385454541800087E09021812
:10029000A4A49C787F0804047800447D400020409A
:1002A000403D007F1028440000417F40007C0478DE
:1002B00004787C080404783844444438FC18242426
:1002C0001818242418FC7C080404084854545424A6
:1002D00004043F44243C4040207C1C2040201C3C23
:1002E0004030403C44281028444C9090907C44641A
:1002F000544C4400083641000000770000004136AD
:10030000080002010204023C2623263C1EA1A16132
:10031000123A4040207A3854545559215555794164
:100320002154547841215554784020545579400C3B
:100330001E5272123955555559395454545939551C
:100340005454580000457C410002457D420001455F
:100350007C40F0292429F0F0282528F07C545545CC
:10036000002054547C547C0A097F4932494949325F
:100370003248484832324A4848303A4141217A3A74
:1003800042402078009DA0A07D39444444393D403E
:1003900040403D3C24FF2424487E4943662B2FFCEB
:1003A0002F2BFF0929F620C0887E09032054547999
:1003B000410000447D413048484A32384040227A6A
:1003C000007A0A0A727D0D19317D2629292F2826E7
:1003D0002929292630484D402038080808080808EF
:1003E0000808382F10C8ACBA2F102834FA00007B48
:1003F000000008142A142222142A1408AA00550006
:10040000AAAA55AA55AA000000FF00101010FF006C
:10041000141414FF001010FF00FF1010F010F0145F
:100420001414FC001414F700FF0000FF00FF141464
:10043000F404FC141417101F10101F101F141414B0
:100440001F00101010F0000000001F101010101FEF
:1004500010101010F010000000FF101010101010FD
:10046000101010FF10000000FF140000FF00FF003C
:10047000001F10170000FC04F414141710171414B4
:10048000F404F40000FF00F714141414141414F707
:1004900000F7141414171410101F101F141414F460
:1004A000141010F010F000001F101F0000001F14A7
:1004B000000000FC140000F010F01010FF10FF14FA
:1004C0001414FF141010101F00000000F010FFFFA4
:1004D000FFFFFFF0F0F0F0F0FFFFFF000000000072
:1004E000FFFF0F0F0F0F0F38444438447C2A2A3E79
:1004F000147E02020606027E027E026355494163B3
:100500003844443C04407E201E2006027E020299AC
:10051000A5E7A5991C2A492A1C4C7201724C304A45
:100520004D4D303048784830BC625A463D3E4949CE
:1005300049007E0101017E2A2A2A2A2A44445F4476
:100540004440514A444040444A51400000FF0103A6
:10055000E080FF000008086B6B0836123624360670
:100560000F090F060000181800000010100030409E
:10057000FF0101001F01011E00191D1712003C3C64
:100580003C3C000000000008102060023800000021
:100590000000000000000000FE0000000000000E4F
:1005A000000E00000000D0BE90D0BE9000001C6283
:1005B000FFC28000000C12924CB0880600807C6262
:1005C000B21CC0000000000E0E0000000000E01889
:1005D00004020200000002020418E00000002418D7
:1005E0007E18240000808080F08080800000000061
:1005F00000000000000080808080000000000000FB
:1006000000000000000000806018060000F804C22E
:10061000320CF80000000404FE000000000002821A
:1006200042221C00000002222222DC0000C0A0980E
:1006300084FE808000001E121222C20000F84422B4
:100640002222C00000000202C2320A0600008C52C0
:1006500022528C00003C42424226F800000000304A
:1006600030000000000000303000000000808040BA
:10067000402020100040404040404000001020201A
:10068000404080800000028242221C0000000000E6
:100690000000000000000000050000000000000055
:1006A0000000000000000700000700000000040434
:1006B0000F04030000040201030404030003040404
:1006C0000405030400000000000000000000030611
:1006D00008101000000010100806030000000000C1
:1006E00000000000000000000700000000000016ED
:1006F0000E000000000000000000000000000006E6
:1007000006000000000402010000000000010304D4
:1007100004020100000004040704040000000704B0
:1007200004040400000004040404030000000000AA
:100730000007000000000404040403000001020498
:100740000404030000000007000000000000030490
:100750000404030000000404040201000000000679
:1007600006000000000000160E000000000000015E
:100770000102020400010101010101000004020262
:1007800001010000000000050000000000F80472F4
:100790008AFA84780000C0380638C0000000FE22C3
:1007A0002222DC0000F804020202020000FE020223
:1007B0000204F8000000FE22222222000000FE2295
:1007C0002222220000F804020222E20000FE202081
:1007D0002020FE0000000202FE02020000000000D5
:1007E0000202FE0000FE40B0080402000000FE000D
:1007F0000000000000FE0C7080700CFE00FE0C304B
:10080000C000FE0000F804020204F80000FE4242AC
:1008100042221C0000F804020204F8000000FE421C
:1008200042A21C0000001C22424280000002020280
:10083000FE02020200FE00000000FE00000638C0BA
:1008400000C03806003EC0F00EF0C03E0000069822
:100850006098060000000618E0180600000202C2B8
:10086000320A0600000000FE020202020000061822
:10087000608000000002020202FE00000040300C16
:100880000C304000000000000000000000010204E5
:100890000404000000060101010101060000070434
:1008A000040403000001020404040400000704041B
:1008B0000402010000000704040404000000070013
:1008C000000000000001020404040700000700000B
:1008D00000000700000004040704040000000404F2
:1008E00004040300000700000102040000000704E4
:1008F00004040400000700000100000700070000D6
:1009000000030700000102040402010000070000C8
:1009100000000000000102040C121110000007008A
:1009200000010600000004040404030000000000AD
:100930000700000000030404040403000000000199
:10094000060100000000070000000700000006018B
:10095000000106000000000007000000000605047A
:10096000040404000000001F10101010000000001C
:100970000001020400101010101F00000000000011
:100980000000000000080808080808000000000235
:10099000040000000000E0101010F0000000FE2035
:1009A0001010E0000000E010101010000000E01037
:1009B0001010FE000000E0909090E000000020FC8D
:1009C000222222020000E0101010F0000000FE20A1
:1009D0001010E000001010F20000000000001010E5
:1009E00010F200000000FE80402010000000020213
:1009F000FE00000000F02010F02010F00000F020B9
:100A00001010E0000000E0101010E0000000F020E6
:100A10001010E0000000E0101010F0000000F020C6
:100A200010107000000060909090200000002020C6
:100A3000FC2020200000F0000000F000000070808A
:100A40000080700000F000C030C000F0000030C036
:100A5000C0300000000030C00080700000001010A6
:100A600090503000000080807E02020000000000F4
:100A7000FE000000000002027E80800000008080F6
:100A800000000080000000000000000000000000E6
:100A90000000000000000304040207000000070437
:100AA0000404030000000304040404000000030421
:100AB000040207000000030404040400000000070F
:100AC000000000000000332424221F000000070063
:100AD00000000700000000070404000000202020A0
:100AE000201F0000000007000102040000000000B9
:100AF00007040400000700000700000700000700CB
:100B000000000700000003040404030000003F0489
:100B1000040403000000030404023F000000070077
:100B200000000000000002040404030000000000B4
:100B3000030404040000030404020700000000038F
:100B40000403000000010601000106010000060187
:100B500001060000002020310E0300000000060501
:100B600004040400000000001F101000000000003A
:100B700007000000000010101F000000000100002E
:100B8000010101000000000000000000000A102E1A
:100B90000C01140000000000000000000000000034
:100BA0000000000000000078FC020303030302FCC5
:100BB000780000000000000000FF7E000002838338
:100BC000838302FC780000028383838302FC787EA7
:100BD000FF008080808000FF7E78FC028383838317
:100BE00002000078FC02838383830200000002037A
:100BF0000303030302FC7878FC028383838302FCF3
:100C00007878FC028383838302FC7800000060F024
:100C1000F060000000000000000000000000001E66
:100C20003F40C0C0C0C0403F1E00000000000000A8
:100C300000FF7E1C3E41C1C1C1C141000000004116
:100C4000C1C1C1C1413E1C0000010101010101FF00
:100C50007E000041C1C1C1C1413E1C1C3E41C1C119
:100C6000C1C1413E1C0000000000000000FF7E1CCE
:100C70003E41C1C1C1C1413E1C000041C1C1C1C111
:100C8000413E1C0C30300B012000C0F87C3E3EFC85
:100C9000F8C0000000000080E078FEFE00000000C8
:100CA0000000F07C3C3E3EFEFCE0000000007C3E8C
:100CB0003E3EFEF8C0000000000000000000F8FE0C
:100CC000FE0000000000FEFE3E3E3E3E3E000000F4
:100CD00000000080F0FC3E3E3EFC000000003E3E76
:100CE0003E3E3E3E3EFEFE00000000C0F8FE3E7E60
:100CF000FCE00000000000E0FC7E3EFEF8C00000CA
:100D00000000000000C0E0C00000000000F0FF0F85
:100D1000000000F9FFFFF000000000070300FFFFE4
:100D2000000000000000010000000000FFFF0000C4
:100D300000000000000000FFFF00000000000000B5
:100D4000E0FF1FFFFF0000000000FFFF00000000A9
:100D5000000000000000E0FF3F0000000000000075
:100D600000000000000000C0FC7F0300000000FF46
:100D7000FF000000FFFF00000000FEFF0300000076
:100D8000FFFFF00000000000003F7F3F0000000078
:100D900000FFFF0000E0FF1F00FFFF000000000059
:100DA0000000FFFF00000000000000000000E0FE67
:100DB0001F010000000000F8F8FCFFC70000000061
:100DC0000000C0FE3F0300FFFF00000000003F3FA7
:100DD0003E7EFCF8E00000000000FFFF80F07C7C1D
:100DE000F8F00000000000000080F8FF070000009D
:100DF000000000019FFFF8FE1F0100000000FFFF40
:100E0000C0000080FFFFFF000000000000000000A5
:100E10000000000000FFFFC0FC7F030000FFFF0098
:100E2000000000000000FFFF0000000000000000C4
:100E3000E0FE0F0100000000000000000000010FB4
:100E4000FFF8000000F8FFE7E0E0E0FFFFE0E0E08F
:100E50000000000000000007FFFE00000000FFFF90
:100E6000FF03000001FFFF0000000000F0FF0F0083
:100E7000000000000000C0FC3F03031FFFFCC00097
:100E80000000000F1F3E3E0F01FFFF0000000000AA
:100E900000008000000000000007FFFF07000000C6
:100EA000FCFF0700000000000000FFFF0000000042
:100EB0000000E0FE0F000000000000000000000045
:100EC000000000C0FF7F000000030303030303FFD3
:100ED000FF03030300000000000000C0FF7F0000CC
:100EE00000000FFFFF80000080FF7F00000000FE79
:100EF000FF030000000000000000FFFF8000000072
:100F000080FFFF000000000000000080FCFF0700E1
:100F10000000000000FFFFFF000000000000031FB2
:100F20003F7C7C3F1F0300000000007C7C7C7F7FB7
:100F30007C7C7C0000007F7F7C7C7C7C7C7C000057
:100F400000003F7E7C7C7E1F070000000000000048
:100F50000000007F7F00000000001F3E7C7C3E1FE1
:100F600007000000000000031F7F7C7C3F0700009B
:100F70000000007F7F000000000000000000011F53
:100F80003F7E7C7E3F1F01000000003E7C7C7E3F58
:100F90000F01000000000000000001000000000040
:100FA0000016103002002CFCFCC0C0F3F33C3CF0F7
:100FB000F0F0F0F0F03C3CF3F3C0C0FCFC0000C0EB
:100FC000C0F3F33C3CF0F0F0F0F0F03C3CF3F3C045
:100FD000C000000303CFCF3F3F0F0F0F0F0F0F0FC6
:100FE0000F0F0F3F3FCFCF03033F3F03033F3FCFE1
:100FF000CFCFCF0F0FCFCFCFCF3F3F03033F3F1810
:101000001030020030F0F0FCFCFCFC3C3C3F3FFFA9
:10101000FFFFFF3F3F3C3CFCFCFCFCF0F0F0F0FC31
:10102000FCFCFC3C3C3F3FFFFFFFFF3F3F3C3CFCE8
:10103000FCFCFCF0F0C3C3C3C333333F3F0F0F339B
:101040003333330F0F3F3F3333C3C3C3C3030333C0
:1010500033FFFFCFCF0F0F333333330F0FCFCFFF1C
:10106000FF33330303101030020020C0C0F0F03C07
:101070003CFFFFFFFF3C3CF0F0C0C0C0C0F0F03CC4
:101080003CFFFFFFFF3C3CF0F0C0C0C3C33333CF95
:10109000CF33333333CFCF3333C3C33333CFCF0324
:1010A000030F0F0F0F0303CFCF33330000000024D3
:1010B0000027002A0000000000250028002B000067
:1010C0000000002300260029000404040404040492
:1010D00004020202020202030303030303010204E7
:1010E00008102040800102040810200102040810AA
:1010F00020000000070002010000030406000000B9
:1011000000000000000049200F2911241FBECFEF6E
:10111000D8E0DEBFCDBF14E0A0E0B1E0EEEBFEE52D
:1011200002C005900D92A238B107D9F715E0A2E8E8
:10113000B4E001C01D92AC3BB107E1F711E1CAE098
:10114000D1E104C02297FE010E94222FC630D107B0
:10115000C9F70E9465290C945D2F0C940000A0E053
:10116000B0E0E5EBF8E00C942E2FEC01A880B980FC
:10117000CA80DB80A114B104C104D10441F484E22B
:10118000A82E89EDB82E8BE5C82E87E0D82EC60193
:10119000B5012DE133EF41E050E00E94052F27EA31
:1011A00031E440E050E00E949D2E7B018C01C6019D
:1011B000B5012DE133EF41E050E00E94052FCA0157
:1011C000B9012CEE34EF4FEF5FEF0E949D2E6E0DB4
:1011D0007F1D801F911F97FF04C0615070408040A9
:1011E0009048688379838A839B839B01AC015F77F6
:1011F000B901CA01CDB7DEB7EAE00C944A2F0E94CC
:10120000AF0808958AEA92E00E94AF0808956093BB
:10121000AA027093AB028093AC029093AD02089542
:10122000FB01DC010D900020E9F7119701900D9270
:101230000020E1F70895AEE0B0E0E1E2F9E00C94BF
:10124000342F0D891E8986E08C831A8309838FEFE2
:101250009FE79E838D839E01275E3F4FCE010196BF
:101260006F89788DA9010E943F092F813885020F6F
:10127000131FF80110822E96E4E00C94502FABE07F
:10128000B0E0E5E4F9E00C94262F3C012B015A0173
:10129000FC0117821682838181FD03C06FEF7FEF0F
:1012A000C6C19AE0892E1E010894211C311CF3014D
:1012B0002381F20123FD859123FF81912F01882352
:1012C00009F4B2C1853239F423FD859123FF819160
:1012D0002F01853229F490E0B3010E94320BE7CF51
:1012E000982FFF24EE249924FFE1FF15D0F09B32C4
:1012F00069F09C3228F4903259F0933291F40EC088
:101300009D3249F0903369F441E024C052E0F52A5F
:1013100084E0F82A28C098E0F92A25C0E0E1FE2AF6
:1013200022C0F7FC29C0892F80538A3070F4F6FE62
:1013300005C0989C902C1124980E15C0E89CE02CB8
:101340001124E80EF0E2FF2A0EC09E3229F4F6FCCA
:101350006BC140E4F42A07C09C3619F450E8F52A22
:1013600002C0983649F4F20123FD959123FF919133
:101370002F01992309F0B8CF892F8554833018F0B5
:101380008052833038F444E050E0A40EB51E5FE391
:1013900059830FC0933631F0933779F0933509F0C4
:1013A00056C020C0F5018081898342E050E0A40E40
:1013B000B51E610101E010E012C0F501C080D180CE
:1013C000F6FC03C06FEF7FEF02C0692D70E042E0D2
:1013D00050E0A40EB51EC6010E94270B8C015FE7EA
:1013E000F52214C0F501C080D180F6FC03C06FEF78
:1013F0007FEF02C0692D70E042E050E0A40EB51E00
:10140000C6010E941C0B8C0150E8F52AF3FE07C0B0
:101410001AC080E290E0B3010E94320BEA948E2D54
:1014200090E008171907A8F30EC0F601F7FC8591A4
:10143000F7FE81916F0190E0B3010E94320BE11041
:10144000EA94015010400115110579F7EAC094366D
:1014500011F0993669F5F7FE08C0F5012081318158
:101460004281538184E090E00AC0F501808191813E
:101470009C01442737FD4095542F82E090E0A80E50
:10148000B91E9FE6F92257FF09C050954095309547
:1014900021953F4F4F4F5F4FE0E8FE2ACA01B90147
:1014A000A1012AE030E00E945E0BD82ED21840C085
:1014B000953729F41F2D1F7E2AE030E01DC01F2D17
:1014C000197F9F3661F0903720F4983509F0ACC051
:1014D0000FC0903739F0983709F0A6C004C028E053
:1014E00030E00AC0106114FD146020E130E004C057
:1014F00014FD166020E132E017FF08C0F50160819D
:1015000071818281938144E050E008C0F5018081BF
:101510009181BC0180E090E042E050E0A40EB51E55
:10152000A1010E945E0BD82ED2188FE7F82EF1226F
:10153000F6FE0BC05EEFF522D91438F4F4FE07C0B6
:10154000F2FC05C08FEEF82202C01D2D01C0192D3E
:10155000F4FE0DC0FE01ED0DF11D8081803319F404
:1015600099EEF92208C01F5FF2FE05C003C08F2D5F
:10157000867809F01F5F0F2DF3FC14C0F0FE0FC03A
:101580001E1510F09D2C0BC09D2C9E0C911A1E2D2B
:1015900006C080E290E0B3010E94320B1F5F1E156F
:1015A000C0F304C01E1510F4E11A01C0EE2404FFBC
:1015B0000FC080E390E0B3010E94320B02FF1DC018
:1015C00001FD03C088E790E00EC088E590E00BC005
:1015D000802F867891F001FF02C08BE201C080E28B
:1015E000F7FC8DE290E0B3010E94320B06C080E36D
:1015F00090E0B3010E94320B9A94D914C0F3DA94AC
:10160000F101ED0DF11D808190E0B3010E94320BDC
:10161000DD20A9F706C080E290E0B3010E94320B02
:10162000EA94EE20C1F743CEF30166817781CB01C6
:101630002B96E2E10C94422FFC0105906150704022
:101640000110D8F7809590958E0F9F1F0895FC018B
:101650006150704001900110D8F7809590958E0FE1
:101660009F1F08950F931F93CF93DF938C01EB017E
:101670008B8181FF1BC082FF0DC02E813F818C8139
:101680009D812817390764F4E881F9810193F98372
:10169000E88306C0E885F985802F0995892B31F408
:1016A0008E819F8101969F838E8302C00FEF1FEF73
:1016B000C801DF91CF911F910F910895FA01AA27D8
:1016C000283051F1203181F1E8946F936E7F6E5F85
:1016D0007F4F8F4F9F4FAF4FB1E03ED0B4E03CD033
:1016E000670F781F891F9A1FA11D680F791F8A1F16
:1016F000911DA11D6A0F711D811D911DA11D20D07D
:1017000009F468943F912AE0269F11243019305D36
:101710003193DEF6CF010895462F4770405D419327
:10172000B3E00FD0C9F7F6CF462F4F70405D4A3374
:1017300018F0495D31FD4052419302D0A9F7EACF3C
:10174000B4E0A6959795879577956795BA95C9F76B
:1017500000976105710508959B01AC010A2E06945E
:101760005795479537952795BA95C9F7620F731F17
:10177000841F951FA01D08958EE060E00E9408263A
:101780008091B00261E00E9408268091B20261E07F
:101790000E94082681E160E00E94082682E160E064
:1017A0000E94082683E160E00E94082681E061E053
:1017B0000E94082682E060E00E94082683E060E044
:1017C0000E94082685E060E00E9408268091B4020D
:1017D00061E00E9408268CE060E00E94082681E01B
:1017E00060E00E9447268091B00260E070E00E94B5
:1017F000A8258091B20260E070E00E94A8251092B6
:10180000850410928404109287041092860410922A
:1018100089041092880410928B0410928A0410920A
:101820008D0410928C0410928F0410928E041092EA
:1018300091041092900410929304109292041092CA
:1018400099041092980410929B0410929A0410929A
:101850009D0410929C048AE995E040E855E260E01E
:1018600070E00E947827089580919C0490919D04D7
:101870000197C1F48091980490919904019791F493
:1018800080919A0490919B04019761F48091B40235
:1018900061E00E94472668E873E180E090E00E94E2
:1018A0001E2548C08091B40261E00E94472664EF83
:1018B00071E080E090E00E941E258091B40260E01B
:1018C0000E94472664EF71E080E090E00E941E25B0
:1018D0008091B40261E00E94472664EF71E080E0ED
:1018E00090E00E941E258091B40260E00E9447268D
:1018F00064EF71E080E090E00E941E258091B402C8
:1019000061E00E94472664EF71E080E090E00E9471
:101910001E258091B40260E00E944726109299042F
:101920001092980410929B0410929A0410929D04B5
:1019300010929C0481E060E00E944726089581E0B7
:1019400060E00E9408268091B0026FEF70E00E9474
:10195000A82568EC70E080E090E00E941E2581E1FF
:101960000E948625909385048093840483E10E94DD
:101970008625909387048093860481E00E949B26AD
:10198000909389048093880483E00E949B2690931F
:101990008B0480938A048091B2020E9486259093E2
:1019A00083048093820464EF71E080E090E00E9401
:1019B0001E258091B00260E070E00E94A825809111
:1019C0008404909185048558934004F180918604A5
:1019D0009091870485589340CCF080918804909131
:1019E0008904019799F420918A0430918B04213065
:1019F000310561F4809182049091830485369105CC
:101A00002CF4309399042093980404C01092990404
:101A10001092980410928504109284041092870406
:101A200010928604109289041092880410928B04FC
:101A300010928A0410928304109282048091B20260
:101A40006FEF70E00E94A82568EC70E080E090E005
:101A50000E941E2582E10E94862590938D0480932A
:101A60008C0482E00E949B2690938F0480938E04C6
:101A700085E00E949B2690939104809390048CE0D3
:101A80000E949B2690939304809392048091B002CD
:101A90000E948625909383048093820464EF71E012
:101AA00080E090E00E941E258091B20260E070E02C
:101AB0000E94A82580918C0490918D0485589340B4
:101AC000FCF080918E0490918F040197C9F480916D
:101AD000900490919104019799F42091920430918F
:101AE00093042130310561F4809182049091830444
:101AF000853691052CF430939B0420939A0404C0FE
:101B000010929B0410929A0410928D0410928C04EF
:101B100010928F0410928E041092910410929004EF
:101B200010929304109292041092830410928204F3
:101B30008EE00E948625825C91408536910538F4BE
:101B400081E090E090939D0480939C0404C01092E7
:101B50009D0410929C041092950410929404089590
:101B600081E060E00E9408268091B0026FEF70E093
:101B70000E94A82568EC70E080E090E00E941E259D
:101B800081E10E948625909385048093840483E1FB
:101B90000E948625909387048093860481E00E94AA
:101BA0009B26909389048093880483E00E949B265F
:101BB00090938B0480938A048091B2020E948625C0
:101BC000909383048093820464EF71E080E090E05E
:101BD0000E941E258091B00260E070E00E94A8255E
:101BE00080918404909185048558934004F18091FC
:101BF00086049091870485589340CCF080918804A6
:101C000090918904019799F420918A0430918B0472
:101C10002130310561F480918204909183048536EE
:101C200091052CF4309399042093980404C01092E9
:101C300099041092980410928504109284041092D2
:101C400087041092860410928904109288041092DE
:101C50008B0410928A041092830410928204809163
:101C6000B2026FEF70E00E94A82568EC70E080E09F
:101C700090E00E941E2582E10E94862590938D04AB
:101C800080938C0482E00E949B2690938F04809323
:101C90008E0485E00E949B2690939104809390048B
:101CA0008091B0020E9486259093830480938204E1
:101CB00064EF71E080E090E00E941E258091B20206
:101CC00060E070E00E94A82580918C0490918D04C2
:101CD00085589340CCF080918E0490918F040197A9
:101CE00099F420919004309191042130310561F4F0
:101CF0008091820490918304853691052CF4309371
:101D00009B0420939A0404C010929B0410929A049E
:101D100010928D0410928C0410928F0410928E04F5
:101D200010929104109290041092830410928204F5
:101D30008EE00E948625825C91408536910538F4BC
:101D400081E090E090939D0480939C0404C01092E5
:101D50009D0410929C04109295041092940408958E
:101D60008AE995E00E9465281816190604F58AE9A3
:101D700095E00E9496289093970480939604C197CB
:101D800041F48AE995E00E94FF270E94B00D0E946D
:101D9000340C8091960490919704C29741F48AE99B
:101DA00095E00E94FF270E949F0C0E94340C109225
:101DB00097041092960408950F931F9303ED14E077
:101DC000C80160E00E946B20C80160E040E00E9412
:101DD000F21CC80160E071E00E94CD2AC80160E0F9
:101DE0004AE00E94F21CC80167E071E00E94CD2A1F
:101DF000C80160E044E10E94F21CC80162E171E0A8
:101E00000E94CD2AC80160E04EE10E94F21CC80188
:101E10006CE171E00E94CD2AC8010E94C01C609153
:101E2000AE027091AF0280E090E00E941E251F91EB
:101E30000F9108950F931F9303ED14E0C80160E024
:101E40000E946B20C80160E040E00E94F21CC801C3
:101E500065E271E00E94CD2AC80160E04AE00E947C
:101E6000F21CC8016DE271E00E94CD2AC80160E059
:101E700044E10E94F21CC80167E371E00E94CD2A90
:101E8000C8010E94C01C6091AE027091AF0280E058
:101E900090E00E941E25C80160E00E946B20C801EE
:101EA00060E040E00E94F21CC80161E471E00E9421
:101EB000CD2AC80160E04AE00E94F21CC8016BE430
:101EC00071E00E94CD2AC80160E044E10E94F21C4A
:101ED000C8016FE471E00E94CD2AC80160E04EE1C4
:101EE0000E94F21CC80168E571E00E94CD2AC80179
:101EF0000E94C01C6091AE027091AF0280E090E041
:101F00000E941E25C80160E00E946B20C80160E0AD
:101F100040E00E94F21CC80163E671E00E94CD2AF5
:101F2000C80160E04AE00E94F21CC8016CE671E062
:101F30000E94CD2AC80160E044E10E94F21CC80161
:101F400065E771E00E94CD2AC80160E04EE10E9481
:101F5000F21CC8016FE771E00E94CD2AC80160E061
:101F600048E20E94F21CC80167E871E00E94CD2A95
:101F7000C8010E94C01C6091AE027091AF0280E067
:101F800090E00E941E25C80160E00E946B20C801FD
:101F900060E040E00E94F21CC80160E971E00E942C
:101FA000CD2AC80160E04AE00E94F21CC80167E93E
:101FB00071E00E94CD2AC80160E044E10E94F21C59
:101FC000C80161EA71E00E94CD2AC8010E94C01CCC
:101FD0006091AE027091AF0280E090E00E941E25F9
:101FE0001F910F910895EF92FF920F931F937C0121
:101FF00003ED14E0C80160E00E946B20C80160E0BE
:1020000040E00E94F21CC8016CEA71E00E94CD2AF7
:10201000C80160E049E00E94F21CC80167EB71E072
:102020000E94CD2AC80160E042E10E94F21CC80172
:10203000B7010E94CD2AC80160E04BE10E94F21C6A
:10204000C80162EC71E00E94CD2AC8010E94C01C48
:102050001F910F91FF90EF9008950F931F93CF93CF
:10206000DF93EC018B0183ED94E060E00E946B2034
:1020700083ED94E060E040E00E94F21C83ED94E088
:102080006DEC71E00E94CD2A8881882381F083ED78
:1020900094E060E04AE00E94F21C83ED94E0BE010F
:1020A0000E94CD2A83ED94E060E044E104C083ED1A
:1020B00094E060E04AE00E94F21C83ED94E0B801F5
:1020C0000E94CD2A83ED94E00E94C01CDF91CF9145
:1020D0001F910F910895AF92BF92CF92EF920F93FD
:1020E000DF93CF93CDB7DEB766970FB6F894DEBF18
:1020F0000FBECDBF9C01DE011696EDE4F4E081E158
:1021000001900D928150E1F7FE01E20FF31FC680AE
:10211000AC2CBB24C9010197089708F0C1C0205D11
:1021200083ED94E06C2D4FE101E0EE24E3940E94F6
:102130000A1F83ED94E06C2D49E22C2D0DE2CC2496
:10214000C3940E94521D0894A11CB11C83ED94E01D
:102150006A2D49E22A2D0EE20E94521D0894A11C0C
:10216000B11C83ED94E06A2D49E22A2D0FE20E9412
:10217000521D0894A11CB11C83ED94E06A2D49E224
:102180002A2D0EE20E94521D0894A11CB11C83ED61
:1021900094E06A2D49E22A2D0DE26EC0205D83EDA8
:1021A00094E06C2D49E001E0EE24E3942DC000D0D2
:1021B00000D000D0EDB7FEB73196CE010196ADB795
:1021C000BEB712969C938E93119787ED91E09383FF
:1021D0008283358324830E941B098DB79EB70696A0
:1021E0000FB6F8949EBF0FBE8DBF83ED94E06C2DAB
:1021F00049E0298101E0EE24E3940E940A1F83ED67
:1022000094E06C2D41E12A810E940A1F83ED94E045
:102210006C2D46E02C2D02E0EE24E394CC24C394F4
:102220000E94521D0894A11CB11C83ED94E06A2DFC
:1022300046E02A2D01E00E94521D0894A11CB11C09
:1022400083ED94E06A2D46E02A2D00E00E94521DA5
:102250000894A11CB11C83ED94E06A2D46E02A2D60
:1022600001E00E94521D0894A11CB11C83ED94E072
:102270006A2D46E02A2D02E00E94521D83ED94E073
:102280000E94C01C66960FB6F894DEBF0FBECDBF8D
:10229000CF91DF910F91EF90CF90BF90AF900895C5
:1022A0002A3031050CF47ACF82CFCF92DF92EF92B1
:1022B000FF920F93DF93CF93CDB7DEB761970FB641
:1022C000F894DEBF0FBECDBF7C016B01DE0111961D
:1022D000EDE4F4E081E101900D928150E1F7FE011F
:1022E000EE0DFF1D6181C7010197089718F026E0E8
:1022F00030E002C029E230E0DE011196EDE4F4E0C6
:1023000081E101900D928150E1F7022F06506A5F42
:10231000FE01EC0DFD1D2181215083ED94E0402F45
:102320000E94C41D83ED94E00E94C01CC7010E945E
:102330006B10C6010E946B1061960FB6F894DEBF59
:102340000FBECDBFCF91DF910F91FF90EF90DF9047
:10235000CF9008952F923F925F926F927F928F92CB
:102360009F92AF92BF92CF92DF92EF92FF920F9324
:102370001F93DF93CF93CDB7DEB764970FB6F89472
:10238000DEBF0FBECDBF5C014B01190121E04A3415
:10239000520721F0B6EECB2ED12C03C0A9E1CA2EF4
:1023A000D12C84E0A816B10441F195E0A916B1043E
:1023B00054F4A2E0AA16B10441F1B3E0AB16B104A3
:1023C00009F0A7C11EC026E0A216B10451F086E0B4
:1023D000A816B10474F097E0A916B10409F099C1E8
:1023E00004C0FFE0EF2EF12C13C0EEE0EE2EF12C36
:1023F0000FC070E1E72EF12C0BC061E1E62EF12C4D
:1024000007C032E1E32EF12C03C023E1E22EF12CD0
:1024100000D000D000D0EDB7FEB731968E010F5F2F
:102420001F4FADB7BEB712961C930E93119787ED51
:1024300091E093838283558344830E941B098DB767
:102440009EB706960FB6F8949EBF0FBE8DBFC8010B
:102450006AED71E00E941009C8016FED71E00E9401
:102460002D105E2C8E2D60E00E9408268E2D61E0DE
:102470000E9447269DEE692E9FEF792E6C0C7D1CE5
:1024800083E1E82EF12CEC0CFD1CC501B4010E9487
:1024900055116CE271E080E090E00E941E25C501BC
:1024A000B4010E9455116CE271E080E090E00E945E
:1024B0001E25C501B4010E9455116CE271E080E057
:1024C00090E00E941E25852D0E9486258C018AE9B8
:1024D00095E0B8014AE050E00E94AE2A06151705C3
:1024E000A4F2E016F1068CF283ED94E060E00E9425
:1024F0006B20232889F48FED91E00E94F30F852D46
:102500000E94862586010C5E1F4F852D0E94862520
:1025100008171907D4F7FDC083ED94E060E00E942E
:102520006B2065010894C108D10894E0C916D10454
:1025300029F1A5E0CA16D10454F4B2E0CB16D104B7
:1025400019F123E0C216D10409F0E3C01AC086E0F5
:10255000C816D10451F096E0C916D10464F0A7E082
:10256000CA16D10409F0D5C003C08FE090E00EC0B8
:102570008EE090E00BC080E190E008C081E190E047
:1025800005C082E190E002C083E190E0782E61E036
:102590000E94082688EE91E069EE71E00E942D10FD
:1025A000C501B4010E945511C5010E946B1083ED55
:1025B00094E00E94C01C872D61E00E944726C6015E
:1025C000B5010E9455116CE271E080E090E00E943C
:1025D0001E25872D60E00E944726C601B5010E9496
:1025E00055116CE271E080E090E00E941E25852D7F
:1025F0000E9486257C01872D61E00E944726C60146
:10260000B5010E9455116CE271E080E090E00E94FB
:102610001E25852D0E9486258C018AE995E0B7014B
:102620004AE050E00E949B2A8AE995E06DEE71E055
:102630000E94CD2A8AE995E0B8014AE050E00E9464
:10264000AE2A0E191F09015911400CF4B4CF8AE9C2
:1026500095E06FEE71E00E94B72B83ED94E060E0AF
:102660000E946B2083ED94E060E040E00E94F21C49
:1026700083ED94E06CEA71E00E94CD2A83ED94E052
:1026800060E04AE00E94F21C83ED94E062E072E0B8
:102690000E94CD2A83ED94E060E044E10E94F21CA8
:1026A00083ED94E06DE072E00E94CD2A83ED94E02A
:1026B00060E048E20E94F21C83ED94E067E172E082
:1026C0000E94CD2A83ED94E00E94C01C0E94D52474
:1026D0007B018C01872D61E00E9447266CE271E04E
:1026E00080E090E00E941E25872D60E00E94472632
:1026F0006CE271E080E090E00E941E250E94D524EB
:102700006E197F09800B910B615777418040904093
:1027100008F364960FB6F894DEBF0FBECDBFCF911D
:10272000DF911F910F91FF90EF90DF90CF90BF90BE
:10273000AF909F908F907F906F905F903F902F9081
:102740000895DF92EF92FF920F931F93CF93DF9341
:102750008C017B0184309105F9F08530910544F4BA
:1027600082309105F9F08330910509F068C017C0F7
:102770008630910541F0863091055CF087309105F7
:1027800009F05DC003C0CFE0D0E00EC0CEE0D0E0E5
:102790000BC0C0E1D0E008C0C1E1D0E005C0C2E19B
:1027A000D0E002C0C3E1D0E088EE91E06FE172E0DA
:1027B0000E942D10DC2E8C2F60E00E9408268C2FAA
:1027C00061E00E9447268C2F1FC0C801B7010E94FC
:1027D00055116CE271E080E090E00E941E25C80176
:1027E000B7010E9455116CE271E080E090E00E9418
:1027F0001E25C801B7010E9455116CE271E080E00E
:1028000090E00E941E258D2D0E949B260197E9F2E3
:1028100083ED94E060E00E946B208FE192E00E94E3
:10282000F30F8D2D0E949B26892BD9F383ED94E025
:1028300060E00E946B2083ED94E00E94C01CDF9159
:10284000CF911F910F91FF90EF90DF9008952F92FD
:102850003F924F925F926F927F928F929F92AF9230
:10286000BF92CF92DF92EF92FF920F931F93CF937D
:10287000DF9380919E048823C1F48EE994E00E9446
:102880007429892B91F00E94D52468517C4F8F4F79
:102890009F4F6093CF047093D0048093D1049093A2
:1028A000D2048EE994E00E947E2983ED94E060E0FA
:1028B0000E94D31E83ED94E06BE140E00E94F21C85
:1028C00083ED94E06CE070E04AE050E00E949B2AC7
:1028D00083ED94E00E94C91E182F83ED94E00E94BE
:1028E000D01E181B83ED94E06EE1412F0E94F21C74
:1028F00083ED94E066E070E04AE050E00E949B2A9D
:1029000083ED94E00E94C91E182F83ED94E00E948D
:10291000D01E16958695181B83ED94E060E0412F3C
:102920000E94F21C83ED94E069E070E04AE050E020
:102930000E949B2A83ED94E00E94CB1E082F83ED1A
:1029400094E00E94CD1EF82E83ED94E00E94CB1EF1
:10295000182F83ED94E00E94D01E0F1916958695CE
:10296000181B83ED94E0602F412F0E94F21C83ED31
:1029700094E063E070E04AE050E00E949B2A83ED1F
:1029800094E00E94C01C29C2E090CF04F090D004D3
:102990000091D1041091D2040E947524AA2797FDBA
:1029A000A095BA2FE816F9060A071B0709F415C205
:1029B0008091A604882309F490C06091BB047091B3
:1029C000BC048091BD049091BE0420E030E040E062
:1029D00052E40E94EE2B0E94C62C5B016C016091B8
:1029E000B7047091B8048091B9049091BA0420E0C2
:1029F00030E040EC51E40E94EE2B0E94C62C7B019B
:102A00008C0183ED94E060E248E12A2D0E2DEE2446
:102A1000E394CC24C3940E94521D6091B30470913E
:102A2000B4048091B5049091B60420E030E040E019
:102A300052E40E94EE2B0E94C62C5B016C01609157
:102A4000AF047091B0048091B1049091B20420E081
:102A500030E040EC51E40E94EE2B0E94C62C7B013A
:102A60008C0183ED94E060E248E12A2D0E2DEE24E6
:102A7000E394CC24C3940E94521D6091AB047091E6
:102A8000AC048091AD049091AE0420E030E040E0D1
:102A900052E40E94EE2B0E94C62C5B016C016091F7
:102AA000A7047091A8048091A9049091AA0420E041
:102AB00030E040EC51E40E94EE2B0E94C62C7B01DA
:102AC0008C0183ED94E060E248E12A2D0E2DEE2486
:102AD000E394CC24C3940E94521D0E9485249C013F
:102AE000BC01F5E0660F771FFA95E1F7220F331F5F
:102AF000621B730B625F7E4F882777FD8095982F4E
:102B00000E94F42C25E33AEF4EE85CE30E94EA2DA4
:102B10006093C7047093C8048093C9049093CA0457
:102B20000E947D249C01220F331F280F391F220F82
:102B3000331F225F3E4F442737FD4095542FCA0173
:102B4000B9010E94F42C25E33AEF4EE85CE30E94C1
:102B5000EA2D6093C3047093C4048093C5049093DA
:102B6000C6040E9475249C01220F331F280F391FB1
:102B7000220F331F225F3E4F442737FD4095542FCD
:102B8000CA01B9010E94F42C25E33AEF4EE85CE358
:102B90000E94EA2D5B016C016093BF047093C00436
:102BA0008093C1049093C204E090C704F090C804DD
:102BB0000091C9041091CA04C801B7010E94562CA3
:102BC0002AE939E949E151E40E94EA2D1B012C016F
:102BD0006093BB047093BC048093BD049093BE04C7
:102BE000C801B7010E944D2E2AE939E949E151E4B3
:102BF0000E94EA2D3B014C016093B7047093B80426
:102C00008093B9049093BA04E090C304F090C40494
:102C10000091C5041091C604C801B7010E94562C4A
:102C200022E934E249E851E40E94EA2D6093B304BA
:102C30007093B4048093B5049093B604C801B701AF
:102C40000E944D2E22E934E249E851E40E94EA2D27
:102C50006093AF047093B0048093B1049093B20476
:102C6000C601B5010E94562C23EA3BE84EEA51E426
:102C70000E94EA2D6093AB047093AC048093AD0482
:102C80009093AE04C601B5010E944D2E23EA3BE8A5
:102C90004EEA51E40E94EA2D6093A7047093A804C1
:102CA0008093A9049093AA04C201B10120E030E00E
:102CB00040E052E40E94EE2B0E94C62C5B016C01A6
:102CC000C401B30120E030E040EC51E40E94EE2B5F
:102CD0000E94C62C7B018C0183ED94E060E248E108
:102CE0002A2D0E2DEE24E394CC24C3940E94521D71
:102CF0006091B3047091B4048091B5049091B604CE
:102D000020E030E040E052E40E94EE2B0E94C62C0E
:102D10005B016C016091AF047091B0048091B104CB
:102D20009091B20420E030E040EC51E40E94EE2BA0
:102D30000E94C62C7B018C0183ED94E060E248E1A7
:102D40002A2D0E2DEE24E394CC24C3940E94521D10
:102D50006091AB047091AC048091AD049091AE048D
:102D600020E030E040E052E40E94EE2B0E94C62CAE
:102D70005B016C016091A7047091A8048091A90483
:102D80009091AA0420E030E040EC51E40E94EE2B48
:102D90000E94C62C7B018C0183ED94E060E248E147
:102DA0002A2D0E2DEE24E394CC24C3940E94521DB0
:102DB00081E08093A60483ED94E00E94C01C0E94F1
:102DC0007524AA2797FDA095BA2F8093CF049093DE
:102DD000D004A093D104B093D2040E9475246BE078
:102DE00070E00E94D02E892B09F0CECD1092A6045F
:102DF00083ED94E060E00E946B208EE190E0909380
:102E0000AF028093AE0283ED94E060E00E94D31E97
:102E100083ED94E060E048E20E94F21C83ED94E0D0
:102E200066E272E00E94CD2AFF2428E2C22E83EDE2
:102E300094E064E00E94D31E83ED94E06F2D40E0A7
:102E400020E301E0EE24E3940E940A1F83ED94E066
:102E500065E00E94D31E1C2D1F1983ED94E0612FA5
:102E60004AE020E30E940A1F83ED94E066E00E949E
:102E7000D31E83ED94E06F2D40E220E30E940A1FF1
:102E800083ED94E00E94C01C6091AE027091AF028D
:102E900080E090E00E941E2583ED94E064E00E94B3
:102EA000D31E83ED94E06F2D40E020E30E940A1FC3
:102EB00083ED94E065E00E94D31E83ED94E0612FE2
:102EC0004AE020E30E940A1F83ED94E066E00E943E
:102ED000D31E83ED94E06F2D40E220E30E940A1F91
:102EE00083ED94E00E94C01C83ED94E064E00E94B6
:102EF000D31E83ED94E06F2D40E021E30E940A1F72
:102F000083ED94E065E00E94D31E83ED94E0612F91
:102F10004AE021E30E940A1F83ED94E066E00E94EC
:102F2000D31E83ED94E06F2D40E221E30E940A1F3F
:102F300083ED94E00E94C01C6091AE027091AF02DC
:102F400080E090E00E941E2583ED94E064E00E9402
:102F5000D31E83ED94E06F2D40E021E30E940A1F11
:102F600083ED94E065E00E94D31E83ED94E0612F31
:102F70004AE021E30E940A1F83ED94E066E00E948C
:102F8000D31E83ED94E06F2D40E221E30E940A1FDF
:102F900083ED94E00E94C01C82E0F80E88E2F816EF
:102FA00009F045CF98E2F92E88E2C82E83ED94E02F
:102FB00064E00E94D31E83ED94E06F2D4AE020E38D
:102FC00001E0EE24E3940E940A1F83ED94E065E0A3
:102FD0000E94D31E1C2D1F1983ED94E0612F40E049
:102FE00020E30E940A1F83ED94E066E00E94D31E56
:102FF00083ED94E06F2D40E220E30E940A1F83EDF1
:1030000094E00E94C01C6091AE027091AF0280E01B
:1030100090E00E941E2583ED94E064E00E94D31EA0
:1030200083ED94E06F2D4AE020E30E940A1F83EDB8
:1030300094E065E00E94D31E83ED94E0612F40E0B0
:1030400020E30E940A1F83ED94E066E00E94D31EF5
:1030500083ED94E06F2D40E220E30E940A1F83ED90
:1030600094E00E94C01C83ED94E064E00E94D31EB3
:1030700083ED94E06F2D4AE021E30E940A1F83ED67
:1030800094E065E00E94D31E83ED94E0612F40E060
:1030900021E30E940A1F83ED94E066E00E94D31EA4
:1030A00083ED94E06F2D40E221E30E940A1F83ED3F
:1030B00094E00E94C01C6091AE027091AF0280E06B
:1030C00090E00E941E2583ED94E064E00E94D31EF0
:1030D00083ED94E06F2D4AE021E30E940A1F83ED07
:1030E00094E065E00E94D31E83ED94E0612F40E000
:1030F00021E30E940A1F83ED94E066E00E94D31E44
:1031000083ED94E06F2D40E221E30E940A1F83EDDE
:1031100094E00E94C01C8EEFF80E09F047CF85E0C6
:1031200090E09093AF028093AE0283ED94E060E074
:103130000E94D31E83ED94E060E048E20E94F21CFE
:1031400083ED94E061E372E00E94CD2A83ED94E088
:103150000E94C01C64EF71E080E090E00E941E2598
:10316000C0E0D0E060E470E080E090E00E94CA2B14
:103170006093CE0460E470E080E090E00E94CA2B8F
:103180006093CC0460E370E080E090E00E94CA2B82
:103190006093CD0460E370E080E090E00E94CA2B71
:1031A000062F6093CB0483ED94E06091CE044091B0
:1031B000CD042091CC04EE24E394CC24C3940E944B
:1031C000521D83ED94E00E94C01C6091AE0270918C
:1031D000AF0280E090E00E941E2583ED94E06091B4
:1031E000CE044091CD042091CC040091CB040E94E8
:1031F000521D83ED94E00E94C01C2196C639D10572
:1032000009F0B0CF83ED94E060E048E20E94F21C48
:1032100083ED94E06CE372E00E94CD2A83ED94E0AC
:103220000E94C01C64EF71E080E090E00E941E25C7
:103230001092CE041092CD041092CC0411E00FE253
:10324000F02E1093CB04103310F0F092CB0483EDEA
:1032500094E06091CE044091CD04212F0091CB04E5
:10326000EE24E394CC24C3940E94F01D83ED94E0FB
:103270000E94C01C6091AE027091AF0280E090E0AD
:103280000E941E2583ED94E06091CE044091CD0410
:10329000212F0091CB040E94F01D83ED94E00E9449
:1032A000C01C1F5F103469F683ED94E060E048E2D3
:1032B0000E94F21C83ED94E067E472E00E94CD2A44
:1032C00083ED94E00E94C01C64EF71E080E090E028
:1032D0000E941E2580E28093CE0488E18093CD0475
:1032E00010E083ED94E06091CE044091CD04212F55
:1032F00001E0EE24E3940E942C1E83ED94E00E94F2
:10330000C01C6091AE027091AF0280E090E00E941C
:103310001E2583ED94E06091CE044091CD04212FD1
:103320000E942C1E83ED94E00E94C01C6091AE02AE
:103330007091AF0280E090E00E941E251F5F103266
:1033400081F664EF71E080E090E00E941E2583ED3D
:1033500094E060E00E946B2083ED94E060E048E23E
:103360000E94F21C83ED94E062E572E00E94CD2A97
:1033700083ED94E00E94C01C83ED94E060E00E9425
:10338000D31E83ED94E060E040E00E94F21C83EDE8
:1033900094E06DE572E00E94CD2A83ED94E00E94F6
:1033A000C01C6CED75E080E090E00E941E2583ED6E
:1033B00094E060E00E946B2083ED94E060E048E2DE
:1033C0000E94F21C83ED94E064E872E00E94CD2A32
:1033D00083ED94E00E94C01C83ED94E061E00E94C4
:1033E000D31E83ED94E060E040E00E94F21C83ED88
:1033F00094E06FE872E00E94CD2A83ED94E00E9491
:10340000C01C6CED75E080E090E00E941E2583ED0D
:1034100094E060E00E946B2080E89FE4A3ECB7E4B6
:103420008093B6029093B702A093B802B093B9020A
:1034300051C00E94D5242091CF043091D0044091F6
:10344000D1045091D204621773078407950708F4DA
:1034500041C083ED94E063E00E94D31E83ED94E0CD
:1034600060E040E00E94F21C4091B6025091B70229
:103470006091B8027091B90283ED94E022E030E0EF
:103480000E94B42B6091B6027091B7028091B8028D
:103490009091B90220E030E040E85FE30E94ED2B1C
:1034A0006093B6027093B7028093B8029093B9020A
:1034B00083ED94E00E94C01C0E94D5246C597F4F7C
:1034C0008F4F9F4F6093CF047093D0048093D104AB
:1034D0009093D2046091B6027091B7028091B802C5
:1034E0009091B90220E031E443EC57E40E94E62DCC
:1034F00018160CF49ECF83ED94E060E00E946B20E0
:1035000085E89BEEAFE9B1E48093B6029093B702F1
:10351000A093B802B093B902BAC00E94D5242091FA
:10352000CF043091D0044091D1045091D20462175D
:1035300073078407950708F4AAC083ED94E062E05E
:103540000E94D31E83ED94E060E040E00E94F21CF4
:10355000E090B602F090B7020091B8021091B90263
:10356000C801B70120E030E048EC52E40E94EA2DA7
:103570000E94C12CDC01CB0164E170E00E94D02EDE
:10358000AA2797FDA095BA2FBC01CD010E94F42C6B
:103590009B01AC01C801B7010E94EE2BAB01BC013D
:1035A00083ED94E022E030E00E94B42B83ED94E0C0
:1035B0000E94D01E482F83ED94E060E00E94F21C30
:1035C00060E070E088E492E42091B6023091B702A6
:1035D0004091B8025091B9020E94ED2BAB01BC01A1
:1035E00083ED94E022E030E00E94B42B83ED94E080
:1035F0000E94D01E482F50E0440F551F83ED94E0E9
:1036000060E00E94F21C6091B6027091B702809156
:10361000B8029091B90220E030E046E952E40E94FD
:10362000EE2B2AE037ED43EA5CE30E94EE2BAB0180
:10363000BC0183ED94E022E030E00E94B42B609165
:10364000B6027091B7028091B8029091B9022AE057
:1036500037ED43E25CE30E94EE2B6093B602709379
:10366000B7028093B8029093B90283ED94E00E9470
:10367000C01C0E94D5246C597F4F8F4F9F4F609381
:10368000CF047093D0048093D1049093D2046091BE
:10369000B6027091B7028091B8029091B9022AE9FE
:1036A00039E941EA51E40E94522C87FD36CF83ED7F
:1036B00094E060E00E946B2083ED94E060E00E9463
:1036C000D31E8CEA9DE09093AF028093AE020E94DD
:1036D0001A0F85E090E068E070E00E94A11383E09B
:1036E00090E068E070E00E94A11382E090E068E062
:1036F00070E00E94A11384E090E068E070E04AE48A
:1037000051E020E030E00E94AA1184E090E068E0FF
:1037100070E040E157E220E030E00E94AA1185E02D
:1037200090E068E070E04AE451E021E030E00E947F
:10373000AA110E94DC0E83ED94E060E00E946B20F1
:10374000DF91CF911F910F91FF90EF90DF90CF907D
:10375000BF90AF909F908F907F906F905F904F90B1
:103760003F902F900895EF92FF920F931F9383ED58
:1037700094E00E949B2083ED94E061E00E946B2026
:1037800083ED94E00E94C01C8EE00E9486259093F9
:10379000950480939404825C914085369105B8F439
:1037A0000E94BC0B02C00E94B00E809198049091C0
:1037B0009904892B61F480919A0490919B04892B40
:1037C00031F480919C0490919D04892B61F31092B7
:1037D00099041092980410929B0410929A041092EB
:1037E0009D0410929C048AE090E06AE070E041E061
:1037F00050E021E130E001E010E0AEEDEA2EA7E07C
:10380000FA2E0E94C5236CEB72E080E090E00E94EB
:103810001E2583ED94E060E00E946B201F910F91C4
:10382000FF90EF900895DC011A96ED91FC911B97A3
:1038300080811F969C911F97892B80831696ED910E
:10384000FC91179790811F968C911F9780958923E3
:1038500080831896ED91FC91199780811E969C911A
:103860001E97892B80831496ED91FC91159790817A
:103870001E968C911E978095892380836EBD0DB412
:1038800007FEFDCF8EB51496ED91FC9115978081C2
:103890001E969C911E97892B80831896ED91FC9122
:1038A000199790811E968C911E978095892380830D
:1038B0001A96ED91FC911B9790811F968C918095A3
:1038C000892380830895DC011696ED91FC9117976A
:1038D00080811F969C911F97892B80831896ED916C
:1038E000FC91199780811E969C911E97892B80834D
:1038F0001496ED91FC91159790811E968C911E97D0
:103900008095892380836EBD0DB407FEFDCF8EB5F3
:103910001496ED91FC91159780811E969C911E97AF
:10392000892B80831896ED91FC91199790811E96B2
:103930008C911E978095892380831A96ED91FC9136
:103940001B9790811F968C91809589238083089581
:10395000606B0E94131C0895EF92FF921F937C01ED
:10396000162F62956F7060616E5F0E94131C1F704E
:10397000C701612F0E94131C1F91FF90EF900895C3
:10398000CF92DF92EF92FF920F931F93CF93DF932B
:103990007C0100E0C0E0D0E0C701602F0E94A81CBD
:1039A000C70160E00E94AC1C88ECC82E82E0D82ED3
:1039B000CC0EDD1E10E0C701F60161916F010E947F
:1039C000631C1F5F1034B9F70F5FC05CDF4F063018
:1039D00019F7DF91CF911F910F91FF90EF90DF903A
:1039E000CF900895FC01678B408F08950F9360344A
:1039F00008F056C0403308F053C00130E1F42130E4
:103A000009F04EC0E42FE695E695E695F0E036E045
:103A1000EE0FFF1F3A95E1F7E60FF11DE853FD4F5A
:103A2000477081E090E002C0880F991F4A95E2F745
:103A30002081282734C0E42FE695E695E69570E0CE
:103A400050E02130B1F4F0E026E0EE0FFF1F2A95A0
:103A5000E1F7E60FF71FE853FD4F4770507081E024
:103A600090E002C0880F991F4A95E2F72081282B29
:103A700016C0F0E096E0EE0FFF1F9A95E1F7E60F13
:103A8000F71FE853FD4F4770507081E090E002C08F
:103A9000880F991F4A95E2F780952081282320837B
:103AA0000F9108957F928F929F92AF92BF92CF9283
:103AB000DF92EF92FF920F931F93CF93DF93EC016E
:103AC000162FF42ED22E7E2C8C2C9924202F30E011
:103AD000241B310937FF03C0309521953F4F8D2DB1
:103AE00090E0811B910997FF03C0909581959F4FAE
:103AF0008217930744F4992493948F2DF12E182F55
:103B0000802F0D2DD82ED11630F48D2DD12E182FBB
:103B1000802F0F2DF82EBD2CB11A802F90E08F1919
:103B2000910997FF03C0909581959F4FA82EF0169D
:103B300018F0CC24CA9402C0CC24C394EB2CE69495
:103B400013C0992021F0CE016F2D412F03C0CE016B
:103B5000612F4F2D272D082D0E94F61CEA18E7FE35
:103B600002C0FC0CEB0C1F5F1D1558F3DF91CF91C9
:103B70001F910F91FF90EF90DF90CF90BF90AF908B
:103B80009F908F907F900895CF92EF920F93FC01BA
:103B9000E088C1880E94521D0F91EF90CF90089548
:103BA000CF92EF920F93342F502FCE2C260F032F4E
:103BB000E52E0E94521D0F91EF90CF900895CF9265
:103BC000EF920F93562F322F702FCE2C340F252FBC
:103BD000032FE72E0E94521D0F91EF90CF90089572
:103BE0009F92AF92BF92CF92DF92EF92FF920F938C
:103BF0001F93CF93DF93EC01F62EB42E922E102F4D
:103C00000E2DEC2C0E94D01D4B2D4150410FCE01AA
:103C10006F2D292D0E94D01D4EEFD42ED10E81F094
:103C20001B2D1F5FCE016F2D412F2D2D0E94DF1DFB
:103C3000FA94F90CCE016F2D412F2D2D0E94DF1D1E
:103C4000DF91CF911F910F91FF90EF90DF90CF9078
:103C5000BF90AF909F9008955F926F927F928F92E6
:103C60009F92AF92BF92CF92DF92EF92FF920F930B
:103C70001F93CF93DF93EC01862E942EC02EDE2C63
:103C800077247394721A822F90E0880F991F582E10
:103C90005194B22E422F490DCE01682D202F0E2DAA
:103CA0000E94F61C492D4B19CE01682D2C2D0E9427
:103CB000F61C6B2D680DCE01492D2C2D0E94F61C93
:103CC000682D6B19CE01492D2C2D0E94F61CAA24BB
:103CD00053E0652E4BC077FC04C0BA9482E0580EC6
:103CE000750CA394760CEA2CE80C1B2D190DCE0153
:103CF0006E2D412F2C2D0D2D0E94F61CF82CFA183C
:103D0000CE016F2D412F2C2D0E94F61C192D1B1951
:103D1000CE016E2D412F2C2D0E94F61CCE016F2D51
:103D2000412F2C2D0E94F61CEB2CE80C1A2D190D9E
:103D3000CE016E2D412F2C2D0E94F61CF82CFB1865
:103D4000CE016F2D412F2C2D0E94F61C192D1A1912
:103D5000CE016E2D412F2C2D0E94F61CCE016F2D11
:103D6000412F2C2D0E94F61C82E0680EAB140CF43F
:103D7000B2CFDF91CF911F910F91FF90EF90DF9025
:103D8000CF90BF90AF909F908F907F906F905F90FB
:103D9000089580E3089580E40895FC0182890895E0
:103DA000FC0183890895CF93DF93EC01673010F015
:103DB00080E02DC06C8BA62FB0E0AA0FBB1FA654CD
:103DC000BD4FED91FC911197E491EA8BED91FC913F
:103DD00011973196E491EB8BED91FC91119732960E
:103DE000E491ED8BED91FC9111973396E491EE8B7C
:103DF000ED91FC91349684913196E49124E6829F72
:103E0000C00111248E0F911D9A8F898F81E0DF915F
:103E1000CF9108953F924F925F926F927F928F92CF
:103E20009F92AF92BF92CF92DF92EF92FF920F9349
:103E30001F93CF93DF936C01662E342E522F402EAA
:103E40005E2CDC0155964C915597241708F4E6C07A
:103E500056968C915697242F30E0280F311D852FD0
:103E600090E0821793070CF0D9C0052F041B5396DE
:103E70007C90769476947694B1E0B71520F0BB24CC
:103E8000802E992474C0D6015996ED91FC915A97D1
:103E900052962C9130E0CF01B9010E94BC2E462FE2
:103EA000172F802F90E00E94BC2E829F5001839F8D
:103EB000B00C929FB00C1124872D90E08E9F900142
:103EC0008F9F300D9E9F300D1124802F90E0642F26
:103ED000712F0E94BC2E269FC001279F900D369FF8
:103EE000900D1124A80EB91EEE24FF24E6E0F0E0A8
:103EF000AE0EBF1E90C0B81611F480E018C0D601F7
:103F00005496EC91F0E0EE0FFF1FE654FD4F829EB9
:103F1000C001839E900D929E900D11240696840FF1
:103F2000951F0190F081E02DE80FF91F8491132D6A
:103F3000FF24C82FD0E080FF05C0C601662D412FA9
:103F4000242D07C020E0442009F421E0C601662D9D
:103F5000412F052D0E94F61CF3941F5FB8E0FB165D
:103F600021F0D595C7958C2FE4CFB3946394F601D7
:103F70008289282F30E04B2D50E0241735070CF0B4
:103F8000BACF4CC0D6015496EC915497F0E0EE0FA6
:103F9000FF1FE654FD4F59968D919C915A979C01B5
:103FA000E29EC001E39E900DF29E900D11248A0DB9
:103FB0009B1D890D911D0190F081E02DE80FF91FE7
:103FC000849110E0C82FD0E0412F430D80FF04C042
:103FD000C601682D242D06C020E0442009F421E00C
:103FE000C601682D052D0E94F61C1F5F183021F0B8
:103FF000D595C7958C2FE6CF93948394D60152968E
:104000008C91981608F4BECF0894E11CF11CB8E01E
:104010003B0EE71418F4862C9924F0CFDF91CF9152
:104020001F910F91FF90EF90DF90CF90BF90AF90D6
:104030009F908F907F906F905F904F903F900895EA
:10404000EF920F93CF93DF93EC01262F6A30A9F004
:104050006D30C1F06F89488D0889E9880E940A1F78
:104060008F894A89840F8F5F8F8B90E020E430E046
:10407000241B3109281739072CF4888D9B89890F57
:10408000888F1F8A81E090E0DF91CF910F91EF90B0
:1040900008951092D6041092D50482E694E090938D
:1040A000D4048093D30408958AE061E00E944726F7
:1040B0008AE061E00E9408268CB580618CBD8CB5D9
:1040C00080648CBD8DE061E00E9408268BE061E099
:1040D0000E9408260895FF920F931F93CF93DF93BA
:1040E0008C016130C1F4FF24C8016F2D0E94A81C0F
:1040F000C80160E00E94AC1CC0E0D0E0C80160E0F4
:104100000E94631C2196C038D105C1F7F39428E0C2
:10411000F21651F70AC080E891E0E8ECF2E0DF0126
:104120009C011D9221503040E1F7DF91CF911F910A
:104130000F91FF900895EF92FF920F931F93CF93EB
:10414000DF938C0160E00E94D31E81E0D80150967D
:104150008C93509751961C92519757961C92579753
:1041600058961C9284E061E00E94082684E061E099
:104170000E9447268BE061E00E9408268DE061E006
:104180000E94082687E061E00E9408268AE060E03D
:104190000E9408268AE061E00E944726A3EDB0E174
:1041A000FD01249130E0220F331F65EB70E1FB012C
:1041B000E20FF31F85919491E8019D838C83F7EEC4
:1041C000EF2EF0E1FF2EF70184918E874BEA50E14C
:1041D000240F351FF901859194919987888712974B
:1041E000FD01249130E0220F331F620F731FFB018A
:1041F000859194919F838E838EEF9FEFE80EF91E39
:10420000F70184918F87FA01E20FF31F8591949152
:104210009B878A8787E061E00E94472665E070E01F
:1042200080E090E00E941E2587E060E00E94472623
:104230008CB58C7F8CBD8DB581608DBD0E94542066
:104240006AE070E080E090E00E941E2587E062E076
:104250000E940826C8016EEA0E94131CC80165ED81
:104260000E94131CC80160E80E94131CC80168EA80
:104270000E94131CC8016FE20E94131CC80163ED69
:104280000E94131CC80160E00E94131CC80160E476
:104290000E94131CC8016DE80E94131CC80164E150
:1042A0000E94131CC80166EA0E94131CC80164EA3C
:1042B0000E94131CC80161EA0E94131CC80168EC2B
:1042C0000E94131CC8016AED0E94131CC80162E120
:1042D0000E94131CC80161E80E94131CC8016FE80A
:1042E0000E94131CC80169ED0E94131CC80161EFF4
:1042F0000E94131CC8016BED0E94131CC80160E4EE
:104300000E94131CC8016FEA0E94131CC80161E0DF
:104310000E946B208AE995E040E052EC61E070E099
:104320000E947827DF91CF911F910F91FF90EF901E
:1043300008958F929F92AF92BF92CF92DF92EF92A9
:10434000FF920F931F93CF93DF937B018C01EA01C0
:104350002CE330E040E050E00E94E32E6883C80187
:10436000B7012CE330E040E050E00E94E32E122F32
:10437000032FF42EE52E622F732F842F952F2CE31D
:1043800030E040E050E00E94E32E6983612F702FFF
:104390008F2D9E2D2CE330E040E050E00E94E32E74
:1043A000122F032FF42EE52E622F732F842F952FBB
:1043B00028E130E040E050E00E94E32E6A83612F64
:1043C000702F8F2D9E2D28E130E040E050E00E94BC
:1043D000E32E79018A01C801B7016C5F7F4F8F4FCF
:1043E0009F4F27E030E040E050E00E94E32E6F5FF7
:1043F0006B8320E0AA24BB24650101C02F5F822EBD
:104400009924F401EE54F84FCF0183709070892BFA
:1044100099F4CF0164E670E00E94D02E892B39F424
:10442000CF0160E971E00E94D02E892B29F48EE63D
:1044300091E0A0E0B0E004C08DE691E0A0E0B0E043
:10444000A80EB91ECA1EDB1EC501A0E0B0E0E8162A
:10445000F9060A071B0790F62E83F401EE54F84F75
:1044600083E0882E912C8E229F228114910499F44E
:10447000CF0164E670E00E94D02E892B39F4CF0181
:1044800060E971E00E94D02E892B29F48EE691E03C
:10449000A0E0B0E004C08DE691E0A0E0B0E0A81A92
:1044A000B90ACA0ADB0A980187010A191B092C09F3
:1044B0003D09CF0164E670E00E94D02E7C01CF015F
:1044C00060E971E00E94D02EAC01E6E6F4E060E025
:1044D000613051F48114910449F4E114F10441F480
:1044E0004115510529F002C0808103C08CE101C053
:1044F0008DE190E0A0E0B0E0081719072A073B071C
:1045000040F0081B190B2A0B3B0B6F5F31966C3088
:10451000F9F66F5F6D83802F8F5F8C83DF91CF9172
:104520001F910F91FF90EF90DF90CF90BF90AF90D1
:104530009F908F900895EF92FF920F931F937B01AE
:104540008C018091050590910605A0910705B09119
:104550000805E816F9060A071B0771F0C801B7013C
:104560004AEF54E00E949921E0920505F092060579
:1045700000930705109308051F910F91FF90EF908E
:1045800008954F925F926F927F928F929F92AF9217
:10459000BF92CF92DF92EF92FF920F931F93CF9330
:1045A000DF934C01DC0116961C91612F70E080E0D6
:1045B00090E020E833E341EE51E00E949D2E5B0144
:1045C0006C0122EB37E0E12FF0E0EE54F84F1DC014
:1045D000C90183709070892BB1F4C90164E670E061
:1045E0000E94D02E892B39F4C90160E971E00E9444
:1045F000D02E892B41F480E891E5A1E0B0E0A80E2F
:10460000B91ECA1EDB1E2F5F3F4F2E173F0701F753
:10461000D40115968C91482E5524C90164E670E0AA
:104620000E94D02E7C01C90160E971E00E94D02E69
:104630008C01C1E0D0E093E0692E712C62227322DC
:1046400027C0C230D10591F46114710479F4E114EA
:10465000F10419F40115110549F480E89BE3A6E281
:10466000B0E0A80EB91ECA1EDB1E11C0FE01EB5938
:10467000FB4F608170E080E090E020E831E541E0B0
:1046800050E00E949D2EA60EB71EC81ED91E219670
:10469000C415D505B4F2D40112966C9170E080E097
:1046A00090E020E13EE040E050E00E949D2E7B0142
:1046B0008C01F401618170E080E090E02CE330E057
:1046C00040E050E00E949D2EE60EF71E081F191FC5
:1046D000D4018C91E80EF11C011D111D14966C91F2
:1046E00070E061507040882777FD8095982F20E812
:1046F00031E541E050E00E949D2EE60EF71E081FB6
:10470000191FEA0CFB1C0C1D1D1DB701C801DF9110
:10471000CF911F910F91FF90EF90DF90CF90BF90BE
:10472000AF909F908F907F906F905F904F90089583
:104730006093F0047093F1048093F2049093F30477
:10474000209148043091490440914A0450914B040F
:10475000260F371F481F591F2093F4043093F50488
:104760004093F6045093F70482E090E09093F904AC
:104770008093F8040E94D52460930105709302058C
:1047800080930305909304050895EF92FF920F9391
:10479000F701E436F1051CF0E25BF74001C07E96BC
:1047A000E09300050093FF042093FE048093FC0433
:1047B0006093FB044093FA048AEF94E00E94C122C4
:1047C0000E9498230F91FF90EF900895EF92FF922F
:1047D0000F931F931CC02F5F3F4F4F4F5F4F20938E
:1047E000F0043093F1044093F2045093F30488EE04
:1047F00093E0A0E0B0E0E80EF91E0A1F1B1FE09254
:104800000105F092020500930305109304050E9430
:10481000D524E0900105F090020500910305109168
:1048200004056E197F09800B910B2091F0043091E3
:10483000F1044091F2045091F304685E73408040AB
:10484000904048F68091F4049091F504A091F6040C
:10485000B091F704281739074A075B07C8F1E091C0
:10486000EE04F091EF04309799F109956115710507
:104870008105910519F00E9498232AC0809148046F
:1048800090914904A0914A04B0914B042091F00406
:104890003091F1044091F2045091F304820F931F80
:1048A000A41FB51F8093F4049093F504A093F6041D
:1048B000B093F70420E030E08091F8049091F9047F
:1048C000892B11F021E030E03093F9042093F804B3
:1048D0006091F0047091F1048091F2049091F304DE
:1048E0001F910F91FF90EF9008950E94E6230E9480
:1048F0009B228091FA0490E008950E94E6230E9492
:104900009B228091FB0490E008950E94E6230E9480
:104910009B228091FC0490E008951F920F920FB6A5
:104920000F9211242F933F938F939F93AF93BF9335
:1049300080910D0590910E05A0910F05B091100585
:10494000309111050196A11DB11D232F2D5F2D372B
:1049500020F02D570196A11DB11D209311058093C4
:104960000D0590930E05A0930F05B093100580914F
:10497000090590910A05A0910B05B0910C050196CF
:10498000A11DB11D8093090590930A05A0930B0505
:10499000B0930C05BF91AF919F918F913F912F9153
:1049A0000F900FBE0F901F9018958FB7F89420911D
:1049B0000D0530910E0540910F05509110058FBFE8
:1049C000B901CA010895789484B5826084BD84B524
:1049D000816084BD85B5826085BD85B5816085BDFA
:1049E000EEE6F0E0808181608083E1E8F0E0108213
:1049F000808182608083808181608083E0E8F0E054
:104A0000808181608083E1EBF0E08081846080833D
:104A1000E0EBF0E0808181608083EAE7F0E0808174
:104A200084608083808182608083808181608083D4
:104A30008081806880831092C1000895EF92FF9278
:104A40000F931F93CF93DF937B018C013FB7F894B3
:104A50008091090590910A05A0910B05B0910C0574
:104A600026B5A89B05C02F3F19F00196A11DB11DC9
:104A70003FBFBA2FA92F982F8827820F911DA11D04
:104A8000B11D52E0880F991FAA1FBB1F5A95D1F77D
:104A9000EC0130C00E94EC2B3FB7F89480910905DF
:104AA00090910A05A0910B05B0910C0526B5A89B25
:104AB00005C02F3F19F00196A11DB11D3FBFBA2FB0
:104AC000A92F982F8827820F911DA11DB11D32E0BB
:104AD000880F991FAA1FBB1F3A95D1F78C1B9D0BFE
:104AE000885E9340B8F20894E108F10801091109C1
:104AF000C851DC4FE114F1040105110559F6DF91AD
:104B0000CF911F910F91FF90EF900895982F8E30C5
:104B100008F09E50977080914C048295880F880F02
:104B2000807C892B80937C0080917A0080648093C4
:104B30007A0080917A0086FDFCCF20917800409128
:104B40007900942F80E030E0282B392BC90108959B
:104B50001F93CF93DF93182FEB0161E00E9408268B
:104B6000209709F44AC0CF3FD10509F449C0E12F8D
:104B7000F0E0EF50FF4E84918330C1F0843028F490
:104B8000813051F08230B1F50CC0863019F1873098
:104B900049F1843079F514C084B5806884BDC7BDFF
:104BA00033C084B5806284BDC8BD2EC080918000B2
:104BB000806880938000D0938900C093880024C0CF
:104BC00080918000806280938000D0938B00C0939E
:104BD0008A001AC08091B00080688093B000C093B2
:104BE000B30012C08091B00080628093B000C09387
:104BF000B4000AC0C038D1051CF4812F60E002C0A7
:104C0000812F61E00E944726DF91CF911F91089587
:104C1000CF93DF93482F50E0CA0183529F4EFC018F
:104C2000349147535F4EFA018491882369F190E0F3
:104C3000880F991FFC01E555FF4EA591B491FC0129
:104C4000EB54FF4EC591D491662351F42FB7F894DD
:104C50008C91932F909589238C93888189230BC005
:104C6000623061F42FB7F8948C91932F909589233B
:104C70008C938881832B88832FBF06C09FB7F894BD
:104C80008C91832B8C939FBFDF91CF910895482FF8
:104C900050E0CA018F509F4EFC012491CA018352FB
:104CA0009F4EFC01949147535F4EFA013491332398
:104CB00009F440C0222351F1233071F0243028F44C
:104CC0002130A1F0223011F514C02630B1F0273088
:104CD000C1F02430D9F404C0809180008F7703C0E4
:104CE000809180008F7D8093800010C084B58F7785
:104CF00002C084B58F7D84BD09C08091B0008F77DC
:104D000003C08091B0008F7D8093B000E32FF0E06E
:104D1000EE0FFF1FEB54FF4EA591B4912FB7F894FF
:104D2000662321F48C919095892302C08C91892B64
:104D30008C932FBF0895682F70E0CB018F509F4E4A
:104D4000FC012491CB0183529F4EFC014491675397
:104D50007F4EFB019491992319F420E030E03CC090
:104D6000222351F1233071F0243028F42130A1F0B6
:104D7000223011F514C02630B1F02730C1F02430B4
:104D8000D9F404C0809180008F7703C080918000A7
:104D90008F7D8093800010C084B58F7702C084B56A
:104DA0008F7D84BD09C08091B0008F7703C0809152
:104DB000B0008F7D8093B000892F90E0880F991FFD
:104DC00081549F4EFC01A591B4918C9120E030E07C
:104DD000842311F021E030E0C901089508951F9265
:104DE0000F920FB60F9211242F933F934F938F93EF
:104DF0009F93EF93FF938091C00082FD1DC040916F
:104E0000C60020915205309153052F5F3F4F2F73FD
:104E1000307080915405909155052817390771F02D
:104E2000E0915205F0915305EE5EFA4F40833093C6
:104E300053052093520502C08091C600FF91EF9167
:104E40009F918F914F913F912F910F900FBE0F9097
:104E50001F901895E091A605F091A705E05CFF4F23
:104E60008191919120813181821B930B8F7390707E
:104E7000892B11F00E94EE2608951F920F920FB613
:104E80000F9211242F933F938F939F93EF93FF9350
:104E900020919605309197058091980590919905FC
:104EA0002817390731F48091C1008F7D8093C100AC
:104EB00014C0E0919805F0919905EA5AFA4F2081C3
:104EC000809198059091990501968F7390709093B9
:104ED0009905809398052093C600FF91EF919F91CB
:104EE0008F913F912F910F900FBE0F901F901895AB
:104EF000AF92BF92DF92EF92FF920F931F93CF93E7
:104F0000DF93EC017A018B01DD24403081EE5807FC
:104F100080E0680780E0780711F0DD24D39491E009
:104F2000A92EB12CEC89FD89DD2069F0C50108A00E
:104F300002C0880F991F0A94E2F7808360E079E04D
:104F40008DE390E005C0108260E874E88EE190E0A7
:104F5000A80197010E94E32E21503040404050406C
:104F6000569547953795279580E12030380720F0F2
:104F7000DD2011F0DD24D6CFE889F9893083EA8974
:104F8000FB89208319A2EE89FF89408121E030E06E
:104F9000C9010C8C02C0880F991F0A94E2F7482BB4
:104FA0004083EE89FF894081C9010D8C02C0880FC2
:104FB000991F0A94E2F7482B4083EE89FF894081CC
:104FC000C9010E8C02C0880F991F0A94E2F7482B82
:104FD0004083EE89FF8980810F8C02C0220F331F2E
:104FE0000A94E2F7209528232083DF91CF911F9127
:104FF0000F91FF90EF90DF90BF90AF900895CF9307
:10500000DF93DC011E968D919C911F97EC01C05C93
:10501000DF4FFC01EE5BFF4F288139818081918158
:1050200028173907C9F75696ED91FC91579740819B
:1050300021E030E0C9015C960C905C9702C0880FBB
:10504000991F0A94E2F78095842380835696ED9108
:10505000FC9157974081C9015D960C905D9702C005
:10506000880F991F0A94E2F78095842380835696CF
:10507000ED91FC9157974081C9015E960C905E9727
:1050800002C0880F991F0A94E2F7809584238083D9
:105090005696ED91FC91579780815F960C905F97A3
:1050A00002C0220F331F0A94E2F7209528232083A1
:1050B0001C96ED91FC911D97EE5BFF4F80819181D5
:1050C00092938293DF91CF910895DC011C96ED912C
:1050D000FC911D97E05CFF4F21913191808191817E
:1050E000281B390B2F733070C9010895DC011C9601
:1050F000ED91FC911D97E05CFF4F20813181E054E0
:10510000F040DF01AE5BBF4F8D919C911197281746
:10511000390719F42FEF3FEF07C08D919C91E80FED
:10512000F91F8081282F30E0C9010895DC011C9609
:10513000ED91FC911D97E05CFF4F20813181E0549F
:10514000F040DF01AE5BBF4F8D919C911197281706
:10515000390719F42FEF3FEF10C08D919C911197F3
:10516000E80FF91F20818D919C91119701968F7303
:10517000907011969C938E9330E0C9010895DC01E4
:1051800091968C919197882339F05496ED91FC91EA
:105190005597808186FFF9CF91961C920895CF9301
:1051A000DF93EC01EE85FF85E05CFF4F20813181CC
:1051B000E054F0402F5F3F4F2F733070DF01AE5B44
:1051C000BF4F8D919C91119728173907D1F3E05C5F
:1051D000FF4F80819181E054F040E80FF91F608318
:1051E000EE85FF85E05CFF4F31832083EE89FF89E8
:1051F000208181E090E00F8C02C0880F991F0A94F3
:10520000E2F7282B208381E089A3EC89FD89808146
:105210008064808381E090E0DF91CF9108951092C7
:105220009D0510929C0588EE93E0A0E0B0E080938D
:105230009E0590939F05A093A005B093A10586E7D6
:1052400094E090939B0580939A0582E195E090937A
:10525000A7058093A60586E595E09093A905809320
:10526000A80585EC90E09093AB058093AA0584ECAB
:1052700090E09093AD058093AC0580EC90E0909326
:10528000AF058093AE0581EC90E09093B1058093DB
:10529000B00582EC90E09093B3058093B20586EC64
:1052A00090E09093B5058093B40584E08093B605B3
:1052B00083E08093B70587E08093B80585E080930D
:1052C000B90581E08093BA050895CF93DF930E94DA
:1052D000E3240E94B31BCAE2D7E20E94271420975E
:1052E000E1F30E942A27F9CFFC0120E030E0808121
:1052F000882311F421E030E0C9010895FC0181E028
:1053000080830895CF92DF92EF92FF920F931F93C5
:10531000CF93DF937C016B018A01C0E0D0E00FC026
:10532000D6016D916D01D701ED91FC910190F08155
:10533000E02DC7010995C80FD91F01501040011574
:10534000110571F7CE01DF91CF911F910F91FF9061
:10535000EF90DF90CF900895EF92FF920F931F93FD
:105360008C01DC01ED91FC910190F081E02D6DE06C
:1053700009957C01D801ED91FC910190F081E02D1F
:10538000C8016AE009959C012E0D3F1DC9011F91BE
:105390000F91FF90EF900895CF93DF93EC0161158B
:1053A000710519F420E030E00FC0DB010D90002002
:1053B000E9F71197A61BB70BE881F9810280F38109
:1053C000E02DAD0109959C01C901DF91CF910895B0
:1053D0004F925F927F928F929F92AF92BF92CF92A5
:1053E000DF92EF92FF920F931F93DF93CF93CDB78E
:1053F000DEB7A1970FB6F894DEBF0FBECDBF2C016C
:10540000742ECB01223008F42AE019A231E2C32E17
:10541000D12CCC0EDD1E822E9924AA24BB24672D0C
:10542000752FA50194010E94E32E79018A01C8011C
:10543000B701A50194010E949D2E472D461B08949B
:10544000C108D1084A3014F4405D01C0495CF6013E
:105450004083E114F1040105110521F07E2C5F2D3C
:10546000C801DDCFC201B6010E94CC29A1960FB6BA
:10547000F894DEBF0FBECDBFCF91DF911F910F918A
:10548000FF90EF90DF90CF90BF90AF909F908F9064
:105490007F905F904F900895DC012115310541F414
:1054A000ED91FC910190F081E02D642F0995089514
:1054B0000E94E8290895CF92DF92EF92FF920F9316
:1054C0001F93CF93DF93EC016A017B012115310516
:1054D00041F4E881F9810190F081E02D642F099574
:1054E0001FC02A303105D1F477FF17C0E881F98158
:1054F0000190F081E02D6DE209958C01442755273C
:10550000BA014C195D096E097F09CE012AE00E949B
:10551000E8299801280F391F04C02AE00E94E829D1
:105520009C01C901DF91CF911F910F91FF90EF90E6
:10553000DF90CF900895EF92FF920F931F937B011E
:105540009A010027F7FC0095102FB801A7010E94CF
:105550005B2A1F910F91FF90EF900895CF92DF92F9
:10556000EF92FF920F931F936C017B019A0100272A
:10557000F7FC0095102FB801A7010E945B2A8C014F
:10558000C6010E94AC29080F191FC8011F910F9175
:10559000FF90EF90DF90CF9008950E94CC2908955E
:1055A0007F928F929F92AF92BF92CF92DF92EF92B3
:1055B000FF920F931F93CF93DF934C017A018B01DE
:1055C000722ECB01BA01A80197010E94532E8823A5
:1055D00021F0C4016CE972E021C0C0E0D0E05701C5
:1055E0006801E894D7F8C601B5012FEF3FEF4FE708
:1055F0005FE70E94532E882351F4C601B5012FEFB7
:105600003FEF4FE75FE70E94522C181614F0C1E0FD
:10561000D0E0219739F0C40160EA72E00E94CC2901
:10562000EC0193C0C801B7012FEF3FEF4FE75FE4F4
:105630000E94E62D181654F0C801B7012FEF3FEF76
:105640004FE75FEC0E94522C882324F4C40164EAE3
:1056500072E0E4CFC801B70120E030E040E050E064
:105660000E94522C87FD03C0C0E0D0E00EC0D401E0
:10567000ED91FC910190F081E02DC4016DE209955E
:10568000EC0117FB109517F9109520E030E040E091
:105690005FE3DD240BC0CA01B90120E030E040E245
:1056A00051E40E94592C9B01AC01D394D71498F378
:1056B000C801B7010E94EE2B5B016C010E94C62C51
:1056C0007B018C01C401B801A7012AE030E00E94EF
:1056D0004C2AC80FD91F772039F0C40168EA72E05C
:1056E0000E94CC29C80FD91FC801B7010E94F22C13
:1056F0009B01AC01C601B5010E94ED2B24C020E046
:1057000030E040E251E40E94EA2D7B018C010E94CE
:10571000C12C5B016C01CC24B7FCC094DC2CC4010F
:10572000B601A5012AE030E00E945B2AC80FD91F0C
:10573000C601B5010E94F42C9B01AC01C801B70160
:105740000E94ED2B7A947720D1F6CE01DF91CF9194
:105750001F910F91FF90EF90DF90CF90BF90AF908F
:105760009F908F907F9008950E94D02A0895EF9285
:10577000FF920F931F937C010E94CC298C01C701DB
:105780000E94AC29080F191FC8011F910F91FF90AB
:10579000EF900895EF92FF920F931F937B018C017E
:1057A000611571058105910529F420E030E040E0A4
:1057B00050E00BC00E940209A80197010E94052F2A
:1057C000AC01CB01DA019C01AD01B901CA011F9105
:1057D0000F91FF90EF90089508955058BB27AA2786
:1057E0000ED0A9C169D130F06ED120F031F49F3FC5
:1057F00011F41EF45EC10EF4E095E7FB54C1E92FED
:10580000BCD180F3BA17620773078407950718F0B5
:1058100071F49EF5D4C10EF4E0950B2EBA2FA02D95
:105820000B01B90190010C01CA01A0011124FF274D
:10583000591B99F0593F50F4503E68F11A16F04048
:10584000A22F232F342F4427585FF3CF4695379547
:105850002795A795F0405395C9F77EF41F16BA0B0C
:10586000620B730B840BBAF09150A1F0FF0FBB1FBA
:10587000661F771F881FC2F70EC0BA0F621F731F03
:10588000841F48F4879577956795B795F7959E3F60
:1058900008F0B3CF9395880F08F09927EE0F9795EE
:1058A00087950895DCD008F481E0089514D1E3953C
:1058B00053C10CD040C107D140F0FED030F021F4EC
:1058C0005F3F19F0F0C051117BC1F3C056D198F37E
:1058D0009923C9F35523B1F3951B550BBB27AA2771
:1058E00062177307840738F09F5F5F4F220F331FE3
:1058F000441FAA1FA9F333D00E2E3AF0E0E830D0AF
:1059000091505040E695001CCAF729D0FE2F27D0B1
:10591000660F771F881FBB1F261737074807AB077F
:10592000B0E809F0BB0B802DBF01FF2793585F4FF4
:105930002AF09E3F510568F0B6C042C15F3FECF3CC
:10594000983EDCF3869577956795B795F7959F5FB9
:10595000C9F7880F911D9695879597F90895E1E00D
:10596000660F771F881FBB1F621773078407BA076C
:1059700020F0621B730B840BBA0BEE1F88F7E095C7
:10598000089504D06894B1111BC10895FED088F029
:105990009F5790F0B92F9927B751A0F0D1F0660F1B
:1059A000771F881F991F1AF0BA95C9F712C0B13036
:1059B00081F005D1B1E0089502C1672F782F8827C3
:1059C000B85F39F0B93FCCF3869577956795B39575
:1059D000D9F73EF490958095709561957F4F8F4FE4
:1059E0009F4F0895E89409C097FB3EF490958095E9
:1059F000709561957F4F8F4F9F4F9923A9F0F92F95
:105A000096E9BB279395F695879577956795B79512
:105A1000F111F8CFFAF4BB0F11F460FF1BC06F5FF8
:105A20007F4F8F4F9F4F16C0882311F096E911C00A
:105A3000772321F09EE8872F762F05C0662371F02B
:105A400096E8862F70E060E02AF09A95660F771F3F
:105A5000881FDAF7880F9695879597F90895990F1B
:105A60000008550FAA0BE0E8FEEF16161706E80728
:105A7000F907C0F012161306E407F50798F0621B49
:105A8000730B840B950B39F40A2661F0232B242B1E
:105A9000252B21F408950A2609F4A140A6958FEF3D
:105AA000811D811D089597F99F6780E870E060E08F
:105AB00008959FEF80EC089500240A9416161706A7
:105AC00018060906089500240A94121613061406EF
:105AD00005060895EECF59D0E8F3E894EFEFBB2721
